{
  "contractName": "LuckPoing",
  "abi": [
    {
      "constant": true,
      "inputs": [],
      "name": "name",
      "outputs": [
        {
          "name": "",
          "type": "string"
        }
      ],
      "payable": false,
      "stateMutability": "view",
      "type": "function"
    },
    {
      "constant": false,
      "inputs": [
        {
          "name": "_spender",
          "type": "address"
        },
        {
          "name": "_value",
          "type": "uint256"
        }
      ],
      "name": "approve",
      "outputs": [
        {
          "name": "",
          "type": "bool"
        }
      ],
      "payable": false,
      "stateMutability": "nonpayable",
      "type": "function"
    },
    {
      "constant": false,
      "inputs": [
        {
          "name": "_from",
          "type": "address"
        },
        {
          "name": "_to",
          "type": "address"
        },
        {
          "name": "_value",
          "type": "uint256"
        }
      ],
      "name": "transferFrom",
      "outputs": [
        {
          "name": "",
          "type": "bool"
        }
      ],
      "payable": false,
      "stateMutability": "nonpayable",
      "type": "function"
    },
    {
      "constant": true,
      "inputs": [],
      "name": "INITIAL_SUPPLY",
      "outputs": [
        {
          "name": "",
          "type": "uint256"
        }
      ],
      "payable": false,
      "stateMutability": "view",
      "type": "function"
    },
    {
      "constant": true,
      "inputs": [],
      "name": "board_len",
      "outputs": [
        {
          "name": "",
          "type": "uint256"
        }
      ],
      "payable": false,
      "stateMutability": "view",
      "type": "function"
    },
    {
      "constant": true,
      "inputs": [],
      "name": "decimals",
      "outputs": [
        {
          "name": "",
          "type": "uint256"
        }
      ],
      "payable": false,
      "stateMutability": "view",
      "type": "function"
    },
    {
      "constant": false,
      "inputs": [
        {
          "name": "_spender",
          "type": "address"
        },
        {
          "name": "_subtractedValue",
          "type": "uint256"
        }
      ],
      "name": "decreaseApproval",
      "outputs": [
        {
          "name": "",
          "type": "bool"
        }
      ],
      "payable": false,
      "stateMutability": "nonpayable",
      "type": "function"
    },
    {
      "constant": true,
      "inputs": [
        {
          "name": "_owner",
          "type": "address"
        }
      ],
      "name": "balanceOf",
      "outputs": [
        {
          "name": "",
          "type": "uint256"
        }
      ],
      "payable": false,
      "stateMutability": "view",
      "type": "function"
    },
    {
      "constant": true,
      "inputs": [],
      "name": "symbol",
      "outputs": [
        {
          "name": "",
          "type": "string"
        }
      ],
      "payable": false,
      "stateMutability": "view",
      "type": "function"
    },
    {
      "constant": false,
      "inputs": [
        {
          "name": "_to",
          "type": "address"
        },
        {
          "name": "_value",
          "type": "uint256"
        }
      ],
      "name": "transfer",
      "outputs": [
        {
          "name": "",
          "type": "bool"
        }
      ],
      "payable": false,
      "stateMutability": "nonpayable",
      "type": "function"
    },
    {
      "constant": false,
      "inputs": [
        {
          "name": "_spender",
          "type": "address"
        },
        {
          "name": "_addedValue",
          "type": "uint256"
        }
      ],
      "name": "increaseApproval",
      "outputs": [
        {
          "name": "",
          "type": "bool"
        }
      ],
      "payable": false,
      "stateMutability": "nonpayable",
      "type": "function"
    },
    {
      "constant": true,
      "inputs": [
        {
          "name": "_owner",
          "type": "address"
        },
        {
          "name": "_spender",
          "type": "address"
        }
      ],
      "name": "allowance",
      "outputs": [
        {
          "name": "",
          "type": "uint256"
        }
      ],
      "payable": false,
      "stateMutability": "view",
      "type": "function"
    },
    {
      "anonymous": false,
      "inputs": [
        {
          "indexed": false,
          "name": "_player1",
          "type": "address"
        },
        {
          "indexed": false,
          "name": "_player2",
          "type": "address"
        },
        {
          "indexed": false,
          "name": "gameId",
          "type": "uint256"
        }
      ],
      "name": "GameCreate",
      "type": "event"
    },
    {
      "anonymous": false,
      "inputs": [
        {
          "indexed": true,
          "name": "owner",
          "type": "address"
        },
        {
          "indexed": true,
          "name": "spender",
          "type": "address"
        },
        {
          "indexed": false,
          "name": "value",
          "type": "uint256"
        }
      ],
      "name": "Approval",
      "type": "event"
    },
    {
      "anonymous": false,
      "inputs": [
        {
          "indexed": true,
          "name": "from",
          "type": "address"
        },
        {
          "indexed": true,
          "name": "to",
          "type": "address"
        },
        {
          "indexed": false,
          "name": "value",
          "type": "uint256"
        }
      ],
      "name": "Transfer",
      "type": "event"
    },
    {
      "constant": false,
      "inputs": [],
      "name": "__construct",
      "outputs": [],
      "payable": false,
      "stateMutability": "nonpayable",
      "type": "function"
    },
    {
      "constant": true,
      "inputs": [],
      "name": "totalSupply",
      "outputs": [
        {
          "name": "",
          "type": "uint256"
        }
      ],
      "payable": false,
      "stateMutability": "view",
      "type": "function"
    },
    {
      "constant": false,
      "inputs": [
        {
          "name": "_player1",
          "type": "address"
        },
        {
          "name": "_player2",
          "type": "address"
        }
      ],
      "name": "createGame",
      "outputs": [
        {
          "name": "",
          "type": "uint256"
        }
      ],
      "payable": false,
      "stateMutability": "nonpayable",
      "type": "function"
    },
    {
      "constant": false,
      "inputs": [
        {
          "name": "_gameId",
          "type": "uint256"
        },
        {
          "name": "_isplayer1",
          "type": "uint256"
        },
        {
          "name": "_statePlayer",
          "type": "uint256"
        }
      ],
      "name": "setGameData",
      "outputs": [],
      "payable": false,
      "stateMutability": "nonpayable",
      "type": "function"
    },
    {
      "constant": true,
      "inputs": [],
      "name": "getGameTotal",
      "outputs": [
        {
          "name": "total",
          "type": "uint256"
        }
      ],
      "payable": false,
      "stateMutability": "view",
      "type": "function"
    },
    {
      "constant": true,
      "inputs": [
        {
          "name": "_gameId",
          "type": "uint256"
        }
      ],
      "name": "getGameDetailById",
      "outputs": [
        {
          "name": "_player1",
          "type": "uint256"
        },
        {
          "name": "_player2",
          "type": "uint256"
        },
        {
          "name": "_game_result",
          "type": "uint256"
        }
      ],
      "payable": false,
      "stateMutability": "view",
      "type": "function"
    },
    {
      "constant": true,
      "inputs": [],
      "name": "SayHi",
      "outputs": [
        {
          "name": "",
          "type": "string"
        }
      ],
      "payable": false,
      "stateMutability": "pure",
      "type": "function"
    }
  ],
  "bytecode": "0x60806040526040805190810160405280600981526020017f4c75636b506f696e6700000000000000000000000000000000000000000000008152506003908051906020019062000051929190620000cb565b506040805190810160405280600281526020017f4c50000000000000000000000000000000000000000000000000000000000000815250600490805190602001906200009f929190620000cb565b506012600555600554600a0a612710026006556009600755348015620000c457600080fd5b506200017a565b828054600181600116156101000203166002900490600052602060002090601f016020900481019282601f106200010e57805160ff19168380011785556200013f565b828001600101855582156200013f579182015b828111156200013e57825182559160200191906001019062000121565b5b5090506200014e919062000152565b5090565b6200017791905b808211156200017357600081600090555060010162000159565b5090565b90565b611981806200018a6000396000f300608060405260043610610107576000357c0100000000000000000000000000000000000000000000000000000000900463ffffffff16806306fdde031461010c578063095ea7b31461019c5780630d4b8a0c1461020157806318160ddd1461025057806323b872dd1461027b5780632ff2e9dc14610300578063309bd8da1461032b578063313ce567146103565780633dec45cb1461038157806365f0b3481461039857806366188463146103c35780636fbde90a1461042857806370a082311461046957806395d89b41146104c05780639c6dd5d414610550578063a6f979ff146105e0578063a9059cbb14610657578063d73dd623146106bc578063dd62ed3e14610721575b600080fd5b34801561011857600080fd5b50610121610798565b6040518080602001828103825283818151815260200191508051906020019080838360005b83811015610161578082015181840152602081019050610146565b50505050905090810190601f16801561018e5780820380516001836020036101000a031916815260200191505b509250505060405180910390f35b3480156101a857600080fd5b506101e7600480360381019080803573ffffffffffffffffffffffffffffffffffffffff16906020019092919080359060200190929190505050610836565b604051808215151515815260200191505060405180910390f35b34801561020d57600080fd5b5061022c60048036038101908080359060200190929190505050610928565b60405180848152602001838152602001828152602001935050505060405180910390f35b34801561025c57600080fd5b5061026561096e565b6040518082815260200191505060405180910390f35b34801561028757600080fd5b506102e6600480360381019080803573ffffffffffffffffffffffffffffffffffffffff169060200190929190803573ffffffffffffffffffffffffffffffffffffffff16906020019092919080359060200190929190505050610978565b604051808215151515815260200191505060405180910390f35b34801561030c57600080fd5b50610315610d32565b6040518082815260200191505060405180910390f35b34801561033757600080fd5b50610340610d38565b6040518082815260200191505060405180910390f35b34801561036257600080fd5b5061036b610d3e565b6040518082815260200191505060405180910390f35b34801561038d57600080fd5b50610396610d44565b005b3480156103a457600080fd5b506103ad610d8b565b6040518082815260200191505060405180910390f35b3480156103cf57600080fd5b5061040e600480360381019080803573ffffffffffffffffffffffffffffffffffffffff16906020019092919080359060200190929190505050610d98565b604051808215151515815260200191505060405180910390f35b34801561043457600080fd5b50610467600480360381019080803590602001909291908035906020019092919080359060200190929190505050611029565b005b34801561047557600080fd5b506104aa600480360381019080803573ffffffffffffffffffffffffffffffffffffffff169060200190929190505050611071565b6040518082815260200191505060405180910390f35b3480156104cc57600080fd5b506104d56110b9565b6040518080602001828103825283818151815260200191508051906020019080838360005b838110156105155780820151818401526020810190506104fa565b50505050905090810190601f1680156105425780820380516001836020036101000a031916815260200191505b509250505060405180910390f35b34801561055c57600080fd5b50610565611157565b6040518080602001828103825283818151815260200191508051906020019080838360005b838110156105a557808201518184015260208101905061058a565b50505050905090810190601f1680156105d25780820380516001836020036101000a031916815260200191505b509250505060405180910390f35b3480156105ec57600080fd5b50610641600480360381019080803573ffffffffffffffffffffffffffffffffffffffff169060200190929190803573ffffffffffffffffffffffffffffffffffffffff169060200190929190505050611194565b6040518082815260200191505060405180910390f35b34801561066357600080fd5b506106a2600480360381019080803573ffffffffffffffffffffffffffffffffffffffff169060200190929190803590602001909291905050506111a8565b604051808215151515815260200191505060405180910390f35b3480156106c857600080fd5b50610707600480360381019080803573ffffffffffffffffffffffffffffffffffffffff169060200190929190803590602001909291905050506113c7565b604051808215151515815260200191505060405180910390f35b34801561072d57600080fd5b50610782600480360381019080803573ffffffffffffffffffffffffffffffffffffffff169060200190929190803573ffffffffffffffffffffffffffffffffffffffff1690602001909291905050506115c3565b6040518082815260200191505060405180910390f35b60038054600181600116156101000203166002900480601f01602080910402602001604051908101604052809291908181526020018280546001816001161561010002031660029004801561082e5780601f106108035761010080835404028352916020019161082e565b820191906000526020600020905b81548152906001019060200180831161081157829003601f168201915b505050505081565b600081600260003373ffffffffffffffffffffffffffffffffffffffff1673ffffffffffffffffffffffffffffffffffffffff16815260200190815260200160002060008573ffffffffffffffffffffffffffffffffffffffff1673ffffffffffffffffffffffffffffffffffffffff168152602001908152602001600020819055508273ffffffffffffffffffffffffffffffffffffffff163373ffffffffffffffffffffffffffffffffffffffff167f8c5be1e5ebec7d5bd14f71427d1e84f3dd0314c0f7b2291e5b200ac8c7c3b925846040518082815260200191505060405180910390a36001905092915050565b60008060008060088581548110151561093d57fe5b9060005260206000209060040201905080600201549350806003015492506109648561164a565b9150509193909250565b6000600654905090565b60008073ffffffffffffffffffffffffffffffffffffffff168373ffffffffffffffffffffffffffffffffffffffff16141515156109b557600080fd5b6000808573ffffffffffffffffffffffffffffffffffffffff1673ffffffffffffffffffffffffffffffffffffffff168152602001908152602001600020548211151515610a0257600080fd5b600260008573ffffffffffffffffffffffffffffffffffffffff1673ffffffffffffffffffffffffffffffffffffffff16815260200190815260200160002060003373ffffffffffffffffffffffffffffffffffffffff1673ffffffffffffffffffffffffffffffffffffffff168152602001908152602001600020548211151515610a8d57600080fd5b610ade826000808773ffffffffffffffffffffffffffffffffffffffff1673ffffffffffffffffffffffffffffffffffffffff168152602001908152602001600020546116db90919063ffffffff16565b6000808673ffffffffffffffffffffffffffffffffffffffff1673ffffffffffffffffffffffffffffffffffffffff16815260200190815260200160002081905550610b71826000808673ffffffffffffffffffffffffffffffffffffffff1673ffffffffffffffffffffffffffffffffffffffff168152602001908152602001600020546116f490919063ffffffff16565b6000808573ffffffffffffffffffffffffffffffffffffffff1673ffffffffffffffffffffffffffffffffffffffff16815260200190815260200160002081905550610c4282600260008773ffffffffffffffffffffffffffffffffffffffff1673ffffffffffffffffffffffffffffffffffffffff16815260200190815260200160002060003373ffffffffffffffffffffffffffffffffffffffff1673ffffffffffffffffffffffffffffffffffffffff168152602001908152602001600020546116db90919063ffffffff16565b600260008673ffffffffffffffffffffffffffffffffffffffff1673ffffffffffffffffffffffffffffffffffffffff16815260200190815260200160002060003373ffffffffffffffffffffffffffffffffffffffff1673ffffffffffffffffffffffffffffffffffffffff168152602001908152602001600020819055508273ffffffffffffffffffffffffffffffffffffffff168473ffffffffffffffffffffffffffffffffffffffff167fddf252ad1be2c89b69c2b068fc378daa952ba7f163c4a11628f55a4df523b3ef846040518082815260200191505060405180910390a3600190509392505050565b60065481565b60075481565b60055481565b6006546000803373ffffffffffffffffffffffffffffffffffffffff1673ffffffffffffffffffffffffffffffffffffffff16815260200190815260200160002081905550565b6000600880549050905090565b600080600260003373ffffffffffffffffffffffffffffffffffffffff1673ffffffffffffffffffffffffffffffffffffffff16815260200190815260200160002060008573ffffffffffffffffffffffffffffffffffffffff1673ffffffffffffffffffffffffffffffffffffffff16815260200190815260200160002054905080831115610ea9576000600260003373ffffffffffffffffffffffffffffffffffffffff1673ffffffffffffffffffffffffffffffffffffffff16815260200190815260200160002060008673ffffffffffffffffffffffffffffffffffffffff1673ffffffffffffffffffffffffffffffffffffffff16815260200190815260200160002081905550610f3d565b610ebc83826116db90919063ffffffff16565b600260003373ffffffffffffffffffffffffffffffffffffffff1673ffffffffffffffffffffffffffffffffffffffff16815260200190815260200160002060008673ffffffffffffffffffffffffffffffffffffffff1673ffffffffffffffffffffffffffffffffffffffff168152602001908152602001600020819055505b8373ffffffffffffffffffffffffffffffffffffffff163373ffffffffffffffffffffffffffffffffffffffff167f8c5be1e5ebec7d5bd14f71427d1e84f3dd0314c0f7b2291e5b200ac8c7c3b925600260003373ffffffffffffffffffffffffffffffffffffffff1673ffffffffffffffffffffffffffffffffffffffff16815260200190815260200160002060008873ffffffffffffffffffffffffffffffffffffffff1673ffffffffffffffffffffffffffffffffffffffff168152602001908152602001600020546040518082815260200191505060405180910390a3600191505092915050565b600060088481548110151561103a57fe5b9060005260206000209060040201905060018314156110615781816002018190555061106b565b8181600301819055505b50505050565b60008060008373ffffffffffffffffffffffffffffffffffffffff1673ffffffffffffffffffffffffffffffffffffffff168152602001908152602001600020549050919050565b60048054600181600116156101000203166002900480601f01602080910402602001604051908101604052809291908181526020018280546001816001161561010002031660029004801561114f5780601f106111245761010080835404028352916020019161114f565b820191906000526020600020905b81548152906001019060200180831161113257829003601f168201915b505050505081565b60606040805190810160405280601681526020017f48697e204d7920546963546163546f652047616d652100000000000000000000815250905090565b60006111a08383611710565b905092915050565b60008073ffffffffffffffffffffffffffffffffffffffff168373ffffffffffffffffffffffffffffffffffffffff16141515156111e557600080fd5b6000803373ffffffffffffffffffffffffffffffffffffffff1673ffffffffffffffffffffffffffffffffffffffff16815260200190815260200160002054821115151561123257600080fd5b611283826000803373ffffffffffffffffffffffffffffffffffffffff1673ffffffffffffffffffffffffffffffffffffffff168152602001908152602001600020546116db90919063ffffffff16565b6000803373ffffffffffffffffffffffffffffffffffffffff1673ffffffffffffffffffffffffffffffffffffffff16815260200190815260200160002081905550611316826000808673ffffffffffffffffffffffffffffffffffffffff1673ffffffffffffffffffffffffffffffffffffffff168152602001908152602001600020546116f490919063ffffffff16565b6000808573ffffffffffffffffffffffffffffffffffffffff1673ffffffffffffffffffffffffffffffffffffffff168152602001908152602001600020819055508273ffffffffffffffffffffffffffffffffffffffff163373ffffffffffffffffffffffffffffffffffffffff167fddf252ad1be2c89b69c2b068fc378daa952ba7f163c4a11628f55a4df523b3ef846040518082815260200191505060405180910390a36001905092915050565b600061145882600260003373ffffffffffffffffffffffffffffffffffffffff1673ffffffffffffffffffffffffffffffffffffffff16815260200190815260200160002060008673ffffffffffffffffffffffffffffffffffffffff1673ffffffffffffffffffffffffffffffffffffffff168152602001908152602001600020546116f490919063ffffffff16565b600260003373ffffffffffffffffffffffffffffffffffffffff1673ffffffffffffffffffffffffffffffffffffffff16815260200190815260200160002060008573ffffffffffffffffffffffffffffffffffffffff1673ffffffffffffffffffffffffffffffffffffffff168152602001908152602001600020819055508273ffffffffffffffffffffffffffffffffffffffff163373ffffffffffffffffffffffffffffffffffffffff167f8c5be1e5ebec7d5bd14f71427d1e84f3dd0314c0f7b2291e5b200ac8c7c3b925600260003373ffffffffffffffffffffffffffffffffffffffff1673ffffffffffffffffffffffffffffffffffffffff16815260200190815260200160002060008773ffffffffffffffffffffffffffffffffffffffff1673ffffffffffffffffffffffffffffffffffffffff168152602001908152602001600020546040518082815260200191505060405180910390a36001905092915050565b6000600260008473ffffffffffffffffffffffffffffffffffffffff1673ffffffffffffffffffffffffffffffffffffffff16815260200190815260200160002060008373ffffffffffffffffffffffffffffffffffffffff1673ffffffffffffffffffffffffffffffffffffffff16815260200190815260200160002054905092915050565b600080600060088481548110151561165e57fe5b90600052602060002090600402019150600090506002826002015414801561168a575060028260030154145b156116d1576002808581151561169c57fe5b0614156116ac57600290506116d0565b60016002858115156116ba57fe5b0614156116ca57600190506116cf565b600390505b5b5b8092505050919050565b60008282111515156116e957fe5b818303905092915050565b6000818301905082811015151561170757fe5b80905092915050565b600061171a611900565b60006080604051908101604052808673ffffffffffffffffffffffffffffffffffffffff1681526020018573ffffffffffffffffffffffffffffffffffffffff16815260200160008152602001600081525091506008829080600181540180825580915050906001820390600052602060002090600402016000909192909190915060008201518160000160006101000a81548173ffffffffffffffffffffffffffffffffffffffff021916908373ffffffffffffffffffffffffffffffffffffffff16021790555060208201518160010160006101000a81548173ffffffffffffffffffffffffffffffffffffffff021916908373ffffffffffffffffffffffffffffffffffffffff1602179055506040820151816002015560608201518160030155505090508063ffffffff168114151561185657600080fd5b7fa8b3cab00603daf4326e6d99a917426807f23c6688c6371b4375213651ac1419858583604051808473ffffffffffffffffffffffffffffffffffffffff1673ffffffffffffffffffffffffffffffffffffffff1681526020018373ffffffffffffffffffffffffffffffffffffffff1673ffffffffffffffffffffffffffffffffffffffff168152602001828152602001935050505060405180910390a1809250505092915050565b608060405190810160405280600073ffffffffffffffffffffffffffffffffffffffff168152602001600073ffffffffffffffffffffffffffffffffffffffff168152602001600081526020016000815250905600a165627a7a7230582015eecacbcd3be634bef875a1ab0070c400ff69e7b9e1392d2a3727e5e0886f200029",
  "source": "pragma solidity ^0.4.21;\n\nimport \"zeppelin-solidity/contracts/token/ERC20/StandardToken.sol\";\n\ncontract LuckPoing is StandardToken {\n\n\tstring public name = \"LuckPoing\";\n\tstring public symbol = \"LP\";\n\tuint public decimals = 18;\n\tuint public INITIAL_SUPPLY = 10000 * (10 ** decimals);\n\tuint public board_len = 9;\n\n\n\n\tstruct Game {\n\t\taddress player1;\n\t\taddress player2;\n\t\tuint statePlayer1;\n\t\tuint statePlayer2;\n\t}\n\n\tGame[] games;\n\n\tevent GameCreate(address _player1, address _player2, uint256 gameId);\n\n\tfunction __construct() public {\n\t\tbalances[msg.sender] = INITIAL_SUPPLY;\n\t}\n\n\tfunction totalSupply() public view returns (uint256) {\n\t\treturn INITIAL_SUPPLY;\n\t}\n\n  //used\n\tfunction createGame(address _player1, address _player2) public returns (uint) {\n\t\treturn _createGame(_player1, _player2);\n\t}\n\n\n  //used setGameData（parseInt(App.gameId), _isPlayer1, _statePlayer\n\tfunction setGameData (uint256 _gameId, uint _isplayer1, uint _statePlayer) external {\n\t\tGame storage _game = games[_gameId];\n\t\tif(_isplayer1 == 1){\n\t\t\t_game.statePlayer1= _statePlayer;\n\t\t}else{\n\t\t\t_game.statePlayer2 = _statePlayer;\n\t\t}\n\t}\n\n\t//used\n\tfunction getGameTotal() external view returns (uint256 total) {\n\t\ttotal = games.length;\n\t}\n//used\n\tfunction getGameDetailById(uint256 _gameId) external view returns (\n\tuint _player1,\n\tuint _player2,\n\t\tuint _game_result)\n\t{\n\t\tGame storage _game = games[_gameId];\n    _player1 = _game.statePlayer1;\n\t\t_player2 = _game.statePlayer2;\n\t\t_game_result = _checkGameResult(_gameId);\n\t}\n\n\t//used\n\tfunction _createGame(address _player1, address _player2) private returns (uint256) {\n\t\tGame memory _game = Game({\n\t\t\tplayer1: _player1,\n\t\t\tplayer2: _player2,\n\t\t\tstatePlayer1:0,\n\t\t\tstatePlayer2:0\n\t\t});\n\t\tuint256 newGameId = games.push(_game);\n\n\t\t// 确保新id不过超过40多亿的上限（虽然可能性非常低）\n\t\trequire(newGameId == uint256(uint32(newGameId)));\n\n\t\t// 触发游戏创建事件\n\t\temit GameCreate(_player1, _player2, newGameId);\n\n\t\treturn newGameId;\n\t}\n\n\t// used 判断胜负：0未结束，1玩家1胜出，2玩家2胜出，3平局\n\tfunction _checkGameResult(uint256 _gameId) private view returns (uint _check_result){\n\n\t\tGame storage _game = games[_gameId];\n\t\tuint _game_result = 0;\n\t\tif(_game.statePlayer1==2&&_game.statePlayer2==2){\n\t\t\t\tif(_gameId%2==2){\n\t\t\t\t    _game_result=2;\n\t\t\t\t}else if(_gameId%2==1){\n\t\t\t\t    _game_result=1;\n\t\t\t\t}else{\n\t\t\t\t   _game_result=3;\n\t\t\t\t}\n\t\t}\n\n\t\treturn _game_result;\n\t}\n\n  //used\n\tfunction SayHi() pure public returns (string) {\n\t\treturn \"Hi~ My TicTacToe Game!\";\n\t}\n}\n",
  "sourcePath": "/Users/adminstrator/Desktop/project/token/luck_poing/contracts/LuckPoing.sol",
  "compiler": {
    "name": "solc",
    "version": "0.4.23+commit.124ca40d.Emscripten.clang"
  },
  "schemaVersion": "2.0.0",
  "updatedAt": "2018-05-20T07:52:19.977Z"
}