{
  "contractName": "TicTacToeToken",
  "abi": [
    {
      "constant": true,
      "inputs": [],
      "name": "name",
      "outputs": [
        {
          "name": "",
          "type": "string"
        }
      ],
      "payable": false,
      "stateMutability": "view",
      "type": "function"
    },
    {
      "constant": false,
      "inputs": [
        {
          "name": "_spender",
          "type": "address"
        },
        {
          "name": "_value",
          "type": "uint256"
        }
      ],
      "name": "approve",
      "outputs": [
        {
          "name": "",
          "type": "bool"
        }
      ],
      "payable": false,
      "stateMutability": "nonpayable",
      "type": "function"
    },
    {
      "constant": false,
      "inputs": [
        {
          "name": "_from",
          "type": "address"
        },
        {
          "name": "_to",
          "type": "address"
        },
        {
          "name": "_value",
          "type": "uint256"
        }
      ],
      "name": "transferFrom",
      "outputs": [
        {
          "name": "",
          "type": "bool"
        }
      ],
      "payable": false,
      "stateMutability": "nonpayable",
      "type": "function"
    },
    {
      "constant": true,
      "inputs": [],
      "name": "INITIAL_SUPPLY",
      "outputs": [
        {
          "name": "",
          "type": "uint256"
        }
      ],
      "payable": false,
      "stateMutability": "view",
      "type": "function"
    },
    {
      "constant": true,
      "inputs": [],
      "name": "board_len",
      "outputs": [
        {
          "name": "",
          "type": "uint256"
        }
      ],
      "payable": false,
      "stateMutability": "view",
      "type": "function"
    },
    {
      "constant": true,
      "inputs": [],
      "name": "decimals",
      "outputs": [
        {
          "name": "",
          "type": "uint256"
        }
      ],
      "payable": false,
      "stateMutability": "view",
      "type": "function"
    },
    {
      "constant": false,
      "inputs": [
        {
          "name": "_spender",
          "type": "address"
        },
        {
          "name": "_subtractedValue",
          "type": "uint256"
        }
      ],
      "name": "decreaseApproval",
      "outputs": [
        {
          "name": "",
          "type": "bool"
        }
      ],
      "payable": false,
      "stateMutability": "nonpayable",
      "type": "function"
    },
    {
      "constant": true,
      "inputs": [
        {
          "name": "_owner",
          "type": "address"
        }
      ],
      "name": "balanceOf",
      "outputs": [
        {
          "name": "",
          "type": "uint256"
        }
      ],
      "payable": false,
      "stateMutability": "view",
      "type": "function"
    },
    {
      "constant": true,
      "inputs": [],
      "name": "symbol",
      "outputs": [
        {
          "name": "",
          "type": "string"
        }
      ],
      "payable": false,
      "stateMutability": "view",
      "type": "function"
    },
    {
      "constant": false,
      "inputs": [
        {
          "name": "_to",
          "type": "address"
        },
        {
          "name": "_value",
          "type": "uint256"
        }
      ],
      "name": "transfer",
      "outputs": [
        {
          "name": "",
          "type": "bool"
        }
      ],
      "payable": false,
      "stateMutability": "nonpayable",
      "type": "function"
    },
    {
      "constant": false,
      "inputs": [
        {
          "name": "_spender",
          "type": "address"
        },
        {
          "name": "_addedValue",
          "type": "uint256"
        }
      ],
      "name": "increaseApproval",
      "outputs": [
        {
          "name": "",
          "type": "bool"
        }
      ],
      "payable": false,
      "stateMutability": "nonpayable",
      "type": "function"
    },
    {
      "constant": true,
      "inputs": [
        {
          "name": "_owner",
          "type": "address"
        },
        {
          "name": "_spender",
          "type": "address"
        }
      ],
      "name": "allowance",
      "outputs": [
        {
          "name": "",
          "type": "uint256"
        }
      ],
      "payable": false,
      "stateMutability": "view",
      "type": "function"
    },
    {
      "anonymous": false,
      "inputs": [
        {
          "indexed": false,
          "name": "_player1",
          "type": "address"
        },
        {
          "indexed": false,
          "name": "_player2",
          "type": "address"
        },
        {
          "indexed": false,
          "name": "gameId",
          "type": "uint256"
        }
      ],
      "name": "GameCreate",
      "type": "event"
    },
    {
      "anonymous": false,
      "inputs": [
        {
          "indexed": true,
          "name": "owner",
          "type": "address"
        },
        {
          "indexed": true,
          "name": "spender",
          "type": "address"
        },
        {
          "indexed": false,
          "name": "value",
          "type": "uint256"
        }
      ],
      "name": "Approval",
      "type": "event"
    },
    {
      "anonymous": false,
      "inputs": [
        {
          "indexed": true,
          "name": "from",
          "type": "address"
        },
        {
          "indexed": true,
          "name": "to",
          "type": "address"
        },
        {
          "indexed": false,
          "name": "value",
          "type": "uint256"
        }
      ],
      "name": "Transfer",
      "type": "event"
    },
    {
      "constant": false,
      "inputs": [],
      "name": "__construct",
      "outputs": [],
      "payable": false,
      "stateMutability": "nonpayable",
      "type": "function"
    },
    {
      "constant": true,
      "inputs": [],
      "name": "totalSupply",
      "outputs": [
        {
          "name": "",
          "type": "uint256"
        }
      ],
      "payable": false,
      "stateMutability": "view",
      "type": "function"
    },
    {
      "constant": false,
      "inputs": [
        {
          "name": "_player1",
          "type": "address"
        },
        {
          "name": "_player2",
          "type": "address"
        }
      ],
      "name": "createGame",
      "outputs": [
        {
          "name": "",
          "type": "uint256"
        }
      ],
      "payable": false,
      "stateMutability": "nonpayable",
      "type": "function"
    },
    {
      "constant": false,
      "inputs": [
        {
          "name": "_isplayer1",
          "type": "uint256"
        },
        {
          "name": "_gameId",
          "type": "uint256"
        },
        {
          "name": "row",
          "type": "uint256"
        },
        {
          "name": "column",
          "type": "uint256"
        }
      ],
      "name": "setGameData",
      "outputs": [],
      "payable": false,
      "stateMutability": "nonpayable",
      "type": "function"
    },
    {
      "constant": true,
      "inputs": [],
      "name": "getGameTotal",
      "outputs": [
        {
          "name": "total",
          "type": "uint256"
        }
      ],
      "payable": false,
      "stateMutability": "view",
      "type": "function"
    },
    {
      "constant": true,
      "inputs": [
        {
          "name": "_gameId",
          "type": "uint256"
        }
      ],
      "name": "getGameDetailById",
      "outputs": [
        {
          "name": "_player1",
          "type": "address"
        },
        {
          "name": "_player2",
          "type": "address"
        },
        {
          "name": "_game_result",
          "type": "uint256"
        },
        {
          "name": "_game_board",
          "type": "uint256[9]"
        }
      ],
      "payable": false,
      "stateMutability": "view",
      "type": "function"
    },
    {
      "constant": true,
      "inputs": [],
      "name": "SayHi",
      "outputs": [
        {
          "name": "",
          "type": "string"
        }
      ],
      "payable": false,
      "stateMutability": "pure",
      "type": "function"
    }
  ],
  "bytecode": "0x60806040526040805190810160405280600e81526020017f546963546163546f65546f6b656e0000000000000000000000000000000000008152506003908051906020019062000051929190620000cb565b506040805190810160405280600481526020017f5454544300000000000000000000000000000000000000000000000000000000815250600490805190602001906200009f929190620000cb565b506012600555600554600a0a612710026006556009600755348015620000c457600080fd5b506200017a565b828054600181600116156101000203166002900490600052602060002090601f016020900481019282601f106200010e57805160ff19168380011785556200013f565b828001600101855582156200013f579182015b828111156200013e57825182559160200191906001019062000121565b5b5090506200014e919062000152565b5090565b6200017791905b808211156200017357600081600090555060010162000159565b5090565b90565b612130806200018a6000396000f300608060405260043610610107576000357c0100000000000000000000000000000000000000000000000000000000900463ffffffff16806306fdde031461010c578063095ea7b31461019c5780630d4b8a0c1461020157806318160ddd146102d757806323b872dd146103025780632ff2e9dc14610387578063309bd8da146103b2578063313ce567146103dd5780633dec45cb1461040857806365f0b3481461041f578063661884631461044a5780636b9485a1146104af57806370a08231146104fa57806395d89b41146105515780639c6dd5d4146105e1578063a6f979ff14610671578063a9059cbb146106e8578063d73dd6231461074d578063dd62ed3e146107b2575b600080fd5b34801561011857600080fd5b50610121610829565b6040518080602001828103825283818151815260200191508051906020019080838360005b83811015610161578082015181840152602081019050610146565b50505050905090810190601f16801561018e5780820380516001836020036101000a031916815260200191505b509250505060405180910390f35b3480156101a857600080fd5b506101e7600480360381019080803573ffffffffffffffffffffffffffffffffffffffff169060200190929190803590602001909291905050506108c7565b604051808215151515815260200191505060405180910390f35b34801561020d57600080fd5b5061022c600480360381019080803590602001909291905050506109b9565b604051808573ffffffffffffffffffffffffffffffffffffffff1673ffffffffffffffffffffffffffffffffffffffff1681526020018473ffffffffffffffffffffffffffffffffffffffff1673ffffffffffffffffffffffffffffffffffffffff16815260200183815260200182600960200280838360005b838110156102c15780820151818401526020810190506102a6565b5050505090500194505050505060405180910390f35b3480156102e357600080fd5b506102ec610a9c565b6040518082815260200191505060405180910390f35b34801561030e57600080fd5b5061036d600480360381019080803573ffffffffffffffffffffffffffffffffffffffff169060200190929190803573ffffffffffffffffffffffffffffffffffffffff16906020019092919080359060200190929190505050610aa6565b604051808215151515815260200191505060405180910390f35b34801561039357600080fd5b5061039c610e60565b6040518082815260200191505060405180910390f35b3480156103be57600080fd5b506103c7610e66565b6040518082815260200191505060405180910390f35b3480156103e957600080fd5b506103f2610e6c565b6040518082815260200191505060405180910390f35b34801561041457600080fd5b5061041d610e72565b005b34801561042b57600080fd5b50610434610eb9565b6040518082815260200191505060405180910390f35b34801561045657600080fd5b50610495600480360381019080803573ffffffffffffffffffffffffffffffffffffffff16906020019092919080359060200190929190505050610ec6565b604051808215151515815260200191505060405180910390f35b3480156104bb57600080fd5b506104f860048036038101908080359060200190929190803590602001909291908035906020019092919080359060200190929190505050611157565b005b34801561050657600080fd5b5061053b600480360381019080803573ffffffffffffffffffffffffffffffffffffffff1690602001909291905050506111da565b6040518082815260200191505060405180910390f35b34801561055d57600080fd5b50610566611222565b6040518080602001828103825283818151815260200191508051906020019080838360005b838110156105a657808201518184015260208101905061058b565b50505050905090810190601f1680156105d35780820380516001836020036101000a031916815260200191505b509250505060405180910390f35b3480156105ed57600080fd5b506105f66112c0565b6040518080602001828103825283818151815260200191508051906020019080838360005b8381101561063657808201518184015260208101905061061b565b50505050905090810190601f1680156106635780820380516001836020036101000a031916815260200191505b509250505060405180910390f35b34801561067d57600080fd5b506106d2600480360381019080803573ffffffffffffffffffffffffffffffffffffffff169060200190929190803573ffffffffffffffffffffffffffffffffffffffff1690602001909291905050506112fd565b6040518082815260200191505060405180910390f35b3480156106f457600080fd5b50610733600480360381019080803573ffffffffffffffffffffffffffffffffffffffff16906020019092919080359060200190929190505050611311565b604051808215151515815260200191505060405180910390f35b34801561075957600080fd5b50610798600480360381019080803573ffffffffffffffffffffffffffffffffffffffff16906020019092919080359060200190929190505050611530565b604051808215151515815260200191505060405180910390f35b3480156107be57600080fd5b50610813600480360381019080803573ffffffffffffffffffffffffffffffffffffffff169060200190929190803573ffffffffffffffffffffffffffffffffffffffff16906020019092919050505061172c565b6040518082815260200191505060405180910390f35b60038054600181600116156101000203166002900480601f0160208091040260200160405190810160405280929190818152602001828054600181600116156101000203166002900480156108bf5780601f10610894576101008083540402835291602001916108bf565b820191906000526020600020905b8154815290600101906020018083116108a257829003601f168201915b505050505081565b600081600260003373ffffffffffffffffffffffffffffffffffffffff1673ffffffffffffffffffffffffffffffffffffffff16815260200190815260200160002060008573ffffffffffffffffffffffffffffffffffffffff1673ffffffffffffffffffffffffffffffffffffffff168152602001908152602001600020819055508273ffffffffffffffffffffffffffffffffffffffff163373ffffffffffffffffffffffffffffffffffffffff167f8c5be1e5ebec7d5bd14f71427d1e84f3dd0314c0f7b2291e5b200ac8c7c3b925846040518082815260200191505060405180910390a36001905092915050565b60008060006109c6612020565b6000806008878154811015156109d857fe5b906000526020600020906003020191508160000160009054906101000a900473ffffffffffffffffffffffffffffffffffffffff1695508160010160009054906101000a900473ffffffffffffffffffffffffffffffffffffffff16945060009050600090505b6009811015610a88578160020181815481101515610a5957fe5b90600052602060002001548382600981101515610a7257fe5b6020020181815250508080600101915050610a3f565b610a91876117b3565b935050509193509193565b6000600654905090565b60008073ffffffffffffffffffffffffffffffffffffffff168373ffffffffffffffffffffffffffffffffffffffff1614151515610ae357600080fd5b6000808573ffffffffffffffffffffffffffffffffffffffff1673ffffffffffffffffffffffffffffffffffffffff168152602001908152602001600020548211151515610b3057600080fd5b600260008573ffffffffffffffffffffffffffffffffffffffff1673ffffffffffffffffffffffffffffffffffffffff16815260200190815260200160002060003373ffffffffffffffffffffffffffffffffffffffff1673ffffffffffffffffffffffffffffffffffffffff168152602001908152602001600020548211151515610bbb57600080fd5b610c0c826000808773ffffffffffffffffffffffffffffffffffffffff1673ffffffffffffffffffffffffffffffffffffffff16815260200190815260200160002054611d8590919063ffffffff16565b6000808673ffffffffffffffffffffffffffffffffffffffff1673ffffffffffffffffffffffffffffffffffffffff16815260200190815260200160002081905550610c9f826000808673ffffffffffffffffffffffffffffffffffffffff1673ffffffffffffffffffffffffffffffffffffffff16815260200190815260200160002054611d9e90919063ffffffff16565b6000808573ffffffffffffffffffffffffffffffffffffffff1673ffffffffffffffffffffffffffffffffffffffff16815260200190815260200160002081905550610d7082600260008773ffffffffffffffffffffffffffffffffffffffff1673ffffffffffffffffffffffffffffffffffffffff16815260200190815260200160002060003373ffffffffffffffffffffffffffffffffffffffff1673ffffffffffffffffffffffffffffffffffffffff16815260200190815260200160002054611d8590919063ffffffff16565b600260008673ffffffffffffffffffffffffffffffffffffffff1673ffffffffffffffffffffffffffffffffffffffff16815260200190815260200160002060003373ffffffffffffffffffffffffffffffffffffffff1673ffffffffffffffffffffffffffffffffffffffff168152602001908152602001600020819055508273ffffffffffffffffffffffffffffffffffffffff168473ffffffffffffffffffffffffffffffffffffffff167fddf252ad1be2c89b69c2b068fc378daa952ba7f163c4a11628f55a4df523b3ef846040518082815260200191505060405180910390a3600190509392505050565b60065481565b60075481565b60055481565b6006546000803373ffffffffffffffffffffffffffffffffffffffff1673ffffffffffffffffffffffffffffffffffffffff16815260200190815260200160002081905550565b6000600880549050905090565b600080600260003373ffffffffffffffffffffffffffffffffffffffff1673ffffffffffffffffffffffffffffffffffffffff16815260200190815260200160002060008573ffffffffffffffffffffffffffffffffffffffff1673ffffffffffffffffffffffffffffffffffffffff16815260200190815260200160002054905080831115610fd7576000600260003373ffffffffffffffffffffffffffffffffffffffff1673ffffffffffffffffffffffffffffffffffffffff16815260200190815260200160002060008673ffffffffffffffffffffffffffffffffffffffff1673ffffffffffffffffffffffffffffffffffffffff1681526020019081526020016000208190555061106b565b610fea8382611d8590919063ffffffff16565b600260003373ffffffffffffffffffffffffffffffffffffffff1673ffffffffffffffffffffffffffffffffffffffff16815260200190815260200160002060008673ffffffffffffffffffffffffffffffffffffffff1673ffffffffffffffffffffffffffffffffffffffff168152602001908152602001600020819055505b8373ffffffffffffffffffffffffffffffffffffffff163373ffffffffffffffffffffffffffffffffffffffff167f8c5be1e5ebec7d5bd14f71427d1e84f3dd0314c0f7b2291e5b200ac8c7c3b925600260003373ffffffffffffffffffffffffffffffffffffffff1673ffffffffffffffffffffffffffffffffffffffff16815260200190815260200160002060008873ffffffffffffffffffffffffffffffffffffffff1673ffffffffffffffffffffffffffffffffffffffff168152602001908152602001600020546040518082815260200191505060405180910390a3600191505092915050565b600080826003850201915060088581548110151561117157fe5b9060005260206000209060030201905060018614156111b0576001816002018381548110151561119d57fe5b90600052602060002001819055506111d2565b600281600201838154811015156111c357fe5b90600052602060002001819055505b505050505050565b60008060008373ffffffffffffffffffffffffffffffffffffffff1673ffffffffffffffffffffffffffffffffffffffff168152602001908152602001600020549050919050565b60048054600181600116156101000203166002900480601f0160208091040260200160405190810160405280929190818152602001828054600181600116156101000203166002900480156112b85780601f1061128d576101008083540402835291602001916112b8565b820191906000526020600020905b81548152906001019060200180831161129b57829003601f168201915b505050505081565b60606040805190810160405280601681526020017f48697e204d7920546963546163546f652047616d652100000000000000000000815250905090565b60006113098383611dba565b905092915050565b60008073ffffffffffffffffffffffffffffffffffffffff168373ffffffffffffffffffffffffffffffffffffffff161415151561134e57600080fd5b6000803373ffffffffffffffffffffffffffffffffffffffff1673ffffffffffffffffffffffffffffffffffffffff16815260200190815260200160002054821115151561139b57600080fd5b6113ec826000803373ffffffffffffffffffffffffffffffffffffffff1673ffffffffffffffffffffffffffffffffffffffff16815260200190815260200160002054611d8590919063ffffffff16565b6000803373ffffffffffffffffffffffffffffffffffffffff1673ffffffffffffffffffffffffffffffffffffffff1681526020019081526020016000208190555061147f826000808673ffffffffffffffffffffffffffffffffffffffff1673ffffffffffffffffffffffffffffffffffffffff16815260200190815260200160002054611d9e90919063ffffffff16565b6000808573ffffffffffffffffffffffffffffffffffffffff1673ffffffffffffffffffffffffffffffffffffffff168152602001908152602001600020819055508273ffffffffffffffffffffffffffffffffffffffff163373ffffffffffffffffffffffffffffffffffffffff167fddf252ad1be2c89b69c2b068fc378daa952ba7f163c4a11628f55a4df523b3ef846040518082815260200191505060405180910390a36001905092915050565b60006115c182600260003373ffffffffffffffffffffffffffffffffffffffff1673ffffffffffffffffffffffffffffffffffffffff16815260200190815260200160002060008673ffffffffffffffffffffffffffffffffffffffff1673ffffffffffffffffffffffffffffffffffffffff16815260200190815260200160002054611d9e90919063ffffffff16565b600260003373ffffffffffffffffffffffffffffffffffffffff1673ffffffffffffffffffffffffffffffffffffffff16815260200190815260200160002060008573ffffffffffffffffffffffffffffffffffffffff1673ffffffffffffffffffffffffffffffffffffffff168152602001908152602001600020819055508273ffffffffffffffffffffffffffffffffffffffff163373ffffffffffffffffffffffffffffffffffffffff167f8c5be1e5ebec7d5bd14f71427d1e84f3dd0314c0f7b2291e5b200ac8c7c3b925600260003373ffffffffffffffffffffffffffffffffffffffff1673ffffffffffffffffffffffffffffffffffffffff16815260200190815260200160002060008773ffffffffffffffffffffffffffffffffffffffff1673ffffffffffffffffffffffffffffffffffffffff168152602001908152602001600020546040518082815260200191505060405180910390a36001905092915050565b6000600260008473ffffffffffffffffffffffffffffffffffffffff1673ffffffffffffffffffffffffffffffffffffffff16815260200190815260200160002060008373ffffffffffffffffffffffffffffffffffffffff1673ffffffffffffffffffffffffffffffffffffffff16815260200190815260200160002054905092915050565b60008060008060006008868154811015156117ca57fe5b90600052602060002090600302019350600092508360020160048154811015156117f057fe5b906000526020600020015484600201600081548110151561180d57fe5b906000526020600020015414801561185c575083600201600881548110151561183257fe5b906000526020600020015484600201600481548110151561184f57fe5b9060005260206000200154145b806118e1575083600201600481548110151561187457fe5b906000526020600020015484600201600181548110151561189157fe5b90600052602060002001541480156118e057508360020160078154811015156118b657fe5b90600052602060002001548460020160048154811015156118d357fe5b9060005260206000200154145b5b8061196657508360020160048154811015156118f957fe5b906000526020600020015484600201600281548110151561191657fe5b9060005260206000200154148015611965575083600201600681548110151561193b57fe5b906000526020600020015484600201600481548110151561195857fe5b9060005260206000200154145b5b806119eb575083600201600481548110151561197e57fe5b906000526020600020015484600201600381548110151561199b57fe5b90600052602060002001541480156119ea57508360020160058154811015156119c057fe5b90600052602060002001548460020160048154811015156119dd57fe5b9060005260206000200154145b5b15611a4e576001846002016004815481101515611a0457fe5b90600052602060002001541415611a1e57600b9250611a49565b6002846002016004815481101515611a3257fe5b90600052602060002001541415611a4857600c92505b5b611d79565b836002016001815481101515611a6057fe5b9060005260206000200154846002016000815481101515611a7d57fe5b9060005260206000200154148015611acc5750836002016002815481101515611aa257fe5b9060005260206000200154846002016001815481101515611abf57fe5b9060005260206000200154145b80611b515750836002016003815481101515611ae457fe5b9060005260206000200154846002016000815481101515611b0157fe5b9060005260206000200154148015611b505750836002016006815481101515611b2657fe5b9060005260206000200154846002016003815481101515611b4357fe5b9060005260206000200154145b5b15611bb4576001846002016000815481101515611b6a57fe5b90600052602060002001541415611b8457600d9250611baf565b6002846002016000815481101515611b9857fe5b90600052602060002001541415611bae57600e92505b5b611d78565b836002016005815481101515611bc657fe5b9060005260206000200154846002016002815481101515611be357fe5b9060005260206000200154148015611c325750836002016008815481101515611c0857fe5b9060005260206000200154846002016005815481101515611c2557fe5b9060005260206000200154145b80611cb75750836002016007815481101515611c4a57fe5b9060005260206000200154846002016006815481101515611c6757fe5b9060005260206000200154148015611cb65750836002016008815481101515611c8c57fe5b9060005260206000200154846002016007815481101515611ca957fe5b9060005260206000200154145b5b15611d1a576001846002016008815481101515611cd057fe5b90600052602060002001541415611cea57600f9250611d15565b6002846002016008815481101515611cfe57fe5b90600052602060002001541415611d1457601092505b5b611d77565b6001915060009050600090505b600754811015611d6b5760008460020182815481101515611d4457fe5b90600052602060002001541415611d5e5760009150611d6b565b8080600101915050611d27565b8115611d7657606392505b5b5b5b82945050505050919050565b6000828211151515611d9357fe5b818303905092915050565b60008183019050828110151515611db157fe5b80905092915050565b6000611dc4612044565b6000806060604051908101604052808773ffffffffffffffffffffffffffffffffffffffff1681526020018673ffffffffffffffffffffffffffffffffffffffff168152602001600754604051908082528060200260200182016040528015611e3c5781602001602082028038833980820191505090505b50815250925060009150600091505b600754821015611e84576000836040015183815181101515611e6957fe5b90602001906020020181815250508180600101925050611e4b565b6008839080600181540180825580915050906001820390600052602060002090600302016000909192909190915060008201518160000160006101000a81548173ffffffffffffffffffffffffffffffffffffffff021916908373ffffffffffffffffffffffffffffffffffffffff16021790555060208201518160010160006101000a81548173ffffffffffffffffffffffffffffffffffffffff021916908373ffffffffffffffffffffffffffffffffffffffff1602179055506040820151816002019080519060200190611f5c929190612092565b50505090508063ffffffff1681141515611f7557600080fd5b7fa8b3cab00603daf4326e6d99a917426807f23c6688c6371b4375213651ac1419868683604051808473ffffffffffffffffffffffffffffffffffffffff1673ffffffffffffffffffffffffffffffffffffffff1681526020018373ffffffffffffffffffffffffffffffffffffffff1673ffffffffffffffffffffffffffffffffffffffff168152602001828152602001935050505060405180910390a180935050505092915050565b61012060405190810160405280600990602082028038833980820191505090505090565b606060405190810160405280600073ffffffffffffffffffffffffffffffffffffffff168152602001600073ffffffffffffffffffffffffffffffffffffffff168152602001606081525090565b8280548282559060005260206000209081019282156120ce579160200282015b828111156120cd5782518255916020019190600101906120b2565b5b5090506120db91906120df565b5090565b61210191905b808211156120fd5760008160009055506001016120e5565b5090565b905600a165627a7a723058209e5880fe7bb07fc8da0ab8468c11390e99829ddb00f2c66f8a7604b314a4335c0029",
  "source": "pragma solidity ^0.4.21;\n\nimport \"zeppelin-solidity/contracts/token/ERC20/StandardToken.sol\";\n\ncontract TicTacToeToken is StandardToken {\n\n\tstring public name = \"TicTacToeToken\";\n\tstring public symbol = \"TTTC\";\n\tuint public decimals = 18;\n\tuint public INITIAL_SUPPLY = 10000 * (10 ** decimals);\n\tuint public board_len = 9;\n\n\tstruct Game {\n\t\taddress player1;\n\t\taddress player2;\n\t\tuint[] game_board;\n\t}\n\n\tGame[] games;\n\n\tevent GameCreate(address _player1, address _player2, uint256 gameId);\n\n\tfunction __construct() public {\n\t\tbalances[msg.sender] = INITIAL_SUPPLY;\n\t}\n\n\tfunction totalSupply() public view returns (uint256) {\n\t\treturn INITIAL_SUPPLY;\n\t}\n\n\tfunction createGame(address _player1, address _player2) public returns (uint) {\n\t\treturn _createGame(_player1, _player2);\n\t}\n\n\tfunction setGameData(uint _isplayer1, uint256 _gameId, uint row, uint column) external {\n\t\tuint i = row*3 + column;\n\t\tGame storage _game = games[_gameId];\n\t\tif(_isplayer1 == 1){\n\t\t\t_game.game_board[i] = 1;\n\t\t}else{\n\t\t\t_game.game_board[i] = 2;\n\t\t}\n\t}\n\n\tfunction getGameTotal() external view returns (uint256 total) {\n\t\ttotal = games.length;\n\t}\n\n\tfunction getGameDetailById(uint256 _gameId) external view returns (\n\t\taddress _player1,\n\t\taddress _player2,\n\t\tuint _game_result,\n\t\tuint[9] _game_board)\n\t{\n\n\t\tGame storage _game = games[_gameId];\n    _player1 = _game.player1;\n\t\t_player2 = _game.player2;\n\t\tuint i = 0;\n\t\tfor(i = 0; i < 9; i ++){\n\t\t\t_game_board[i] = _game.game_board[i];\n\t\t}\n\t\t_game_result = _checkGameResult(_gameId);\n\t}\n\n\tfunction _createGame(address _player1, address _player2) private returns (uint256) {\n\t\tGame memory _game = Game({\n\t\t\tplayer1: _player1,\n\t\t\tplayer2: _player2,\n\t\t\tgame_board: new uint[](board_len)\n\t\t});\n\n\t\tuint i = 0;\n\t\tfor(i = 0; i < board_len; i ++){\n\t\t\t_game.game_board[i] = 0;\n\t\t}\n\n\t\tuint256 newGameId = games.push(_game);\n\n\t\t// id40\n\t\trequire(newGameId == uint256(uint32(newGameId)));\n\n\t\t// \n\t\temit GameCreate(_player1, _player2, newGameId);\n\n\t\treturn newGameId;\n\t}\n\n\t// 011223\n\tfunction _checkGameResult(uint256 _gameId) private view returns (uint _check_result){\n\n\t\tGame storage _game = games[_gameId];\n\t\tuint _game_result = 0;\n\t\tif((_game.game_board[0] == _game.game_board[4] && _game.game_board[4] == _game.game_board[8]) ||\n\t\t\t\t(_game.game_board[1] == _game.game_board[4] && _game.game_board[4] == _game.game_board[7]) ||\n\t\t\t\t(_game.game_board[2] == _game.game_board[4] && _game.game_board[4] == _game.game_board[6]) ||\n\t\t\t\t(_game.game_board[3] == _game.game_board[4] && _game.game_board[4] == _game.game_board[5])) {\n\t\t\t//  x | - | -    - | x | -    - | - | x    - | - | -\n\t\t\t//  - | x | -    - | x | -    - | x | -    x | x | x\n\t\t\t//  - | - | x    - | x | -    x | - | -    - | - | -\n\t\t\tif (_game.game_board[4] == 1) {\n\t\t\t\t_game_result = 11;\n\t\t\t} else if (_game.game_board[4] == 2) {\n\t\t\t\t_game_result = 12;\n\t\t\t}\n\t\t} else if ((_game.game_board[0] == _game.game_board[1] && _game.game_board[1] == _game.game_board[2]) ||\n\t\t\t\t\t\t\t\t(_game.game_board[0] == _game.game_board[3] && _game.game_board[3] == _game.game_board[6])) {\n\t\t\t//  x | x | x       x | - | -\n\t\t\t//  - | - | -       x | - | -\n\t\t\t//  - | - | -       x | - | -\n\t\t\tif (_game.game_board[0] == 1) {\n\t\t\t\t_game_result = 13;\n\t\t\t} else if (_game.game_board[0] == 2) {\n\t\t\t\t_game_result = 14;\n\t\t\t}\n\t\t} else if ((_game.game_board[2] == _game.game_board[5] && _game.game_board[5] == _game.game_board[8]) ||\n\t\t\t\t\t\t\t(_game.game_board[6] == _game.game_board[7] && _game.game_board[7] == _game.game_board[8])) {\n\t\t\t//  - | - | x       - | - | -\n\t\t\t//  - | - | x       - | - | -\n\t\t\t//  - | - | x       x | x | x\n\t\t\tif (_game.game_board[8] == 1) {\n\t\t\t\t_game_result = 15;\n\t\t\t} else if (_game.game_board[8] == 2) {\n\t\t\t\t_game_result = 16;\n\t\t\t}\n\t\t} else {\n\t\t\t// \n\t\t\tbool is_board_full = true;\n\t\t\tuint i = 0;\n\t\t\tfor (i = 0; i < board_len; i++) {\n\t\t\t\tif (_game.game_board[i] == 0) {\n\t\t\t\t\tis_board_full = false;\n\t\t\t\t\tbreak;\n\t\t\t\t}\n\t\t\t}\n\t\t\tif (is_board_full) {\n\t\t\t\t_game_result = 99;\n\t\t\t}\n\t\t}\n\t\treturn _game_result;\n\t}\n\n\tfunction SayHi() pure public returns (string) {\n\t\treturn \"Hi~ My TicTacToe Game!\";\n\t}\n}\n",
  "sourcePath": "/Users/adminstrator/Desktop/project/token/luck_poing/contracts/LuckPoingToken.sol",
  "compiler": {
    "name": "solc",
    "version": "0.4.23+commit.124ca40d.Emscripten.clang"
  },
  "schemaVersion": "2.0.0",
  "updatedAt": "2018-05-19T07:45:34.399Z"
}